{
  "contractName": "TodoList",
  "abi": [
    {
      "inputs": [],
      "payable": false,
      "stateMutability": "nonpayable",
      "type": "constructor"
    },
    {
      "anonymous": false,
      "inputs": [
        {
          "indexed": false,
          "internalType": "uint256",
          "name": "id",
          "type": "uint256"
        },
        {
          "indexed": false,
          "internalType": "string",
          "name": "content",
          "type": "string"
        },
        {
          "indexed": false,
          "internalType": "bool",
          "name": "completed",
          "type": "bool"
        }
      ],
      "name": "TaskCreated",
      "type": "event"
    },
    {
      "constant": true,
      "inputs": [],
      "name": "taskCount",
      "outputs": [
        {
          "internalType": "uint256",
          "name": "",
          "type": "uint256"
        }
      ],
      "payable": false,
      "stateMutability": "view",
      "type": "function"
    },
    {
      "constant": true,
      "inputs": [
        {
          "internalType": "uint256",
          "name": "",
          "type": "uint256"
        }
      ],
      "name": "tasks",
      "outputs": [
        {
          "internalType": "uint256",
          "name": "id",
          "type": "uint256"
        },
        {
          "internalType": "string",
          "name": "content",
          "type": "string"
        },
        {
          "internalType": "bool",
          "name": "completed",
          "type": "bool"
        }
      ],
      "payable": false,
      "stateMutability": "view",
      "type": "function"
    },
    {
      "constant": false,
      "inputs": [
        {
          "internalType": "string",
          "name": "_content",
          "type": "string"
        }
      ],
      "name": "createTask",
      "outputs": [],
      "payable": false,
      "stateMutability": "nonpayable",
      "type": "function"
    },
    {
      "constant": false,
      "inputs": [
        {
          "internalType": "uint256",
          "name": "_id",
          "type": "uint256"
        }
      ],
      "name": "taskCompleted",
      "outputs": [],
      "payable": false,
      "stateMutability": "nonpayable",
      "type": "function"
    }
  ],
  "bytecode": "0x60806040526000805534801561001457600080fd5b506100596040518060400160405280601381526020017f746f646f20626c6f636b636861696e206170700000000000000000000000000081525061005e60201b60201c565b610248565b6000808154809291906001019190505550604051806060016040528060005481526020018281526020016000151581525060016000805481526020019081526020016000206000820151816000015560208201518160010190805190602001906100c99291906101a3565b5060408201518160020160006101000a81548160ff0219169083151502179055509050507f05d0fb833127fc08168556d0e7ca9554fc3f6bc843b3b7d2bf1c35aea6bab660600054826000604051808481526020018060200183151515158152602001828103825284818151815260200191508051906020019080838360005b83811015610164578082015181840152602081019050610149565b50505050905090810190601f1680156101915780820380516001836020036101000a031916815260200191505b5094505050505060405180910390a150565b828054600181600116156101000203166002900490600052602060002090601f016020900481019282601f106101e457805160ff1916838001178555610212565b82800160010185558215610212579182015b828111156102115782518255916020019190600101906101f6565b5b50905061021f9190610223565b5090565b61024591905b80821115610241576000816000905550600101610229565b5090565b90565b61068e806102576000396000f3fe608060405234801561001057600080fd5b506004361061004c5760003560e01c8063111002aa146100515780637fea02491461010c5780638d9776721461013a578063b6cb58a5146101f3575b600080fd5b61010a6004803603602081101561006757600080fd5b810190808035906020019064010000000081111561008457600080fd5b82018360208201111561009657600080fd5b803590602001918460018302840111640100000000831117156100b857600080fd5b91908080601f016020809104026020016040519081016040528093929190818152602001838380828437600081840152601f19601f820116905080830192505050505050509192919290505050610211565b005b6101386004803603602081101561012257600080fd5b8101908080359060200190929190505050610356565b005b6101666004803603602081101561015057600080fd5b81019080803590602001909291905050506104bc565b604051808481526020018060200183151515158152602001828103825284818151815260200191508051906020019080838360005b838110156101b657808201518184015260208101905061019b565b50505050905090810190601f1680156101e35780820380516001836020036101000a031916815260200191505b5094505050505060405180910390f35b6101fb61058b565b6040518082815260200191505060405180910390f35b60008081548092919060010191905055506040518060600160405280600054815260200182815260200160001515815250600160008054815260200190815260200160002060008201518160000155602082015181600101908051906020019061027c929190610591565b5060408201518160020160006101000a81548160ff0219169083151502179055509050507f05d0fb833127fc08168556d0e7ca9554fc3f6bc843b3b7d2bf1c35aea6bab660600054826000604051808481526020018060200183151515158152602001828103825284818151815260200191508051906020019080838360005b838110156103175780820151818401526020810190506102fc565b50505050905090810190601f1680156103445780820380516001836020036101000a031916815260200191505b5094505050505060405180910390a150565b61035e610611565b6001600083815260200190815260200160002060405180606001604052908160008201548152602001600182018054600181600116156101000203166002900480601f01602080910402602001604051908101604052809291908181526020018280546001816001161561010002031660029004801561041f5780601f106103f45761010080835404028352916020019161041f565b820191906000526020600020905b81548152906001019060200180831161040257829003601f168201915b505050505081526020016002820160009054906101000a900460ff16151515158152505090508060400151158160400190151590811515815250508060016000848152602001908152602001600020600082015181600001556020820151816001019080519060200190610494929190610591565b5060408201518160020160006101000a81548160ff0219169083151502179055509050505050565b6001602052806000526040600020600091509050806000015490806001018054600181600116156101000203166002900480601f01602080910402602001604051908101604052809291908181526020018280546001816001161561010002031660029004801561056e5780601f106105435761010080835404028352916020019161056e565b820191906000526020600020905b81548152906001019060200180831161055157829003601f168201915b5050505050908060020160009054906101000a900460ff16905083565b60005481565b828054600181600116156101000203166002900490600052602060002090601f016020900481019282601f106105d257805160ff1916838001178555610600565b82800160010185558215610600579182015b828111156105ff5782518255916020019190600101906105e4565b5b50905061060d9190610634565b5090565b604051806060016040528060008152602001606081526020016000151581525090565b61065691905b8082111561065257600081600090555060010161063a565b5090565b9056fea265627a7a72315820e15f426181aca8a1bb59e8ec301d6c1a9c0c130c606f180a5bf43337132e6e8464736f6c63430005100032",
  "source": "pragma solidity ^0.5.0;\r\n\r\ncontract TodoList {\r\n\t// Count total number of tasks\r\n  uint public taskCount = 0;\r\n\r\n\t// Custom data type\r\n\tstruct Task {\r\n\t\tuint id; //id of task\r\n\t\tstring content; //content of the task\r\n\t\tbool completed; //Check whether task is done or not(true/false)\r\n\t}\r\n\r\n\t// Mapping is similar to an associative array\r\n\t// First parameter is the key's data type (uint), second parameter is the struct defined above\r\n\t// More like tasks[uint] = Task\r\n\tmapping(uint => Task) public tasks;\r\n\r\n\t// create an event to be emitted to the smart contract/frontend\r\n\tevent TaskCreated(\r\n\t\tuint id,\r\n\t\tstring content,\r\n\t\tbool completed\r\n\t);\r\n\t\r\n\r\n\t// The constructor function runs whenever the smart contract is called\r\n\tconstructor() public {\r\n\t\tcreateTask(\"todo blockchain app\");\r\n\t}\r\n\r\n\tfunction createTask(string memory _content) public {\r\n\t\t//increment taskCount when a new task is created\r\n\t\ttaskCount++;\r\n\t\t// Add a task to the tasks associative array\r\n\t\ttasks[taskCount] = Task(taskCount, _content, false);\r\n\r\n\t\t// Emit the event to the smart contract/frontend\r\n\t\temit TaskCreated(taskCount, _content, false);\r\n\t}\r\n\r\n\tfunction taskCompleted(uint _id) public {\r\n\t\t// Get the task from the tasks mapping\r\n\t\tTask memory _task = tasks[_id];\r\n\t\t// Change the state of the completed task\r\n\t\t_task.completed = !_task.completed;\r\n\t\t// redefine the task\r\n\t\ttasks[_id] = _task;\r\n\t}\r\n\t\r\n}",
  "sourcePath": "C:\\Users\\HP\\Desktop\\todo-blockchain\\src\\contracts\\TodoList.sol",
  "compiler": {
    "name": "solc",
    "version": "0.5.16+commit.9c3226ce.Emscripten.clang"
  },
  "schemaVersion": "3.4.5",
  "updatedAt": "1980-01-03T23:22:51.156Z",
  "networkType": "ethereum",
  "devdoc": {
    "methods": {}
  },
  "userdoc": {
    "methods": {}
  }
}